{
    "contractName": "CertificationC1",
    "abi": [
        {
            "inputs": [],
            "stateMutability": "nonpayable",
            "type": "constructor"
        },
        {
            "inputs": [
                {
                    "internalType": "uint16",
                    "name": "a",
                    "type": "uint16"
                },
                {
                    "internalType": "uint16",
                    "name": "b",
                    "type": "uint16"
                }
            ],
            "name": "function1",
            "outputs": [
                {
                    "internalType": "uint16",
                    "name": "result",
                    "type": "uint16"
                }
            ],
            "stateMutability": "nonpayable",
            "type": "function"
        },
        {
            "inputs": [
                {
                    "internalType": "uint16",
                    "name": "a",
                    "type": "uint16"
                }
            ],
            "name": "function2",
            "outputs": [
                {
                    "internalType": "uint16",
                    "name": "result",
                    "type": "uint16"
                }
            ],
            "stateMutability": "nonpayable",
            "type": "function"
        }
    ],
    "bytecode": "0x608060405234801561001057600080fd5b506102fc806100206000396000f3fe608060405234801561001057600080fd5b50600436106100365760003560e01c806382c56fc71461003b578063b572c2541461006b575b600080fd5b6100556004803603810190610050919061018d565b61009b565b60405161006291906101dc565b60405180910390f35b610085600480360381019061008091906101f7565b6100f4565b60405161009291906101dc565b60405180910390f35b600081836100a99190610253565b9050436000803373ffffffffffffffffffffffffffffffffffffffff1673ffffffffffffffffffffffffffffffffffffffff1681526020019081526020016000208190555092915050565b60006002826101039190610290565b905043600160003373ffffffffffffffffffffffffffffffffffffffff1673ffffffffffffffffffffffffffffffffffffffff16815260200190815260200160002081905550919050565b600080fd5b600061ffff82169050919050565b61016a81610153565b811461017557600080fd5b50565b60008135905061018781610161565b92915050565b600080604083850312156101a4576101a361014e565b5b60006101b285828601610178565b92505060206101c385828601610178565b9150509250929050565b6101d681610153565b82525050565b60006020820190506101f160008301846101cd565b92915050565b60006020828403121561020d5761020c61014e565b5b600061021b84828501610178565b91505092915050565b7f4e487b7100000000000000000000000000000000000000000000000000000000600052601160045260246000fd5b600061025e82610153565b915061026983610153565b925082820261027781610153565b915080821461028957610288610224565b5b5092915050565b600061029b82610153565b91506102a683610153565b9250828201905061ffff8111156102c0576102bf610224565b5b9291505056fea2646970667358221220e9c80856e85392a4c583748564bd2b72de6ddd583ad1f87221db1cef247f415064736f6c63430008130033",
    "immutableReferences": {},
    "source": "// SPDX-License-Identifier: Hedera Foundation\n\npragma solidity ^0.8.15;\n\ncontract CertificationC1 {\n\n\n    mapping(address => uint256) function1Called;\n    mapping(address => uint256) function2Called;\n\n    /**\n     * @dev\n     * empty constructor of the contract\n     */\n    constructor(){\n    }\n\n    /**\n     * @dev\n     * public function to multiply a * b\n     * @param a first int to multiply\n     * @param b second int to multiply\n     */\n    function function1(uint16 a, uint16 b) public returns (uint16 result) {\n        result = a * b;\n        function1Called[msg.sender] = block.number;\n        return result;\n    }\n\n    /**\n     * @dev\n     * public function to add 2 to a\n     * @param a first int to add to\n     */\n    function function2(uint16 a) public returns (uint16 result) {\n        result = a + 2;\n        function2Called[msg.sender] = block.number;\n        return result;\n    }\n}",
    "sourcePath": "/home/ravi/rsrsrs/learn-web3/contracts/contract.sol",
    "compiler": {
        "name": "solc",
        "version": "0.8.19+commit.7dd6d404.Emscripten.clang"
    },
    "schemaVersion": "3.4.13",
    "updatedAt": "2023-04-12T06:26:28.229Z",
    "devdoc": {
        "kind": "dev",
        "methods": {
            "constructor": {
                "details": "empty constructor of the contract"
            },
            "function1(uint16,uint16)": {
                "details": "public function to multiply a * b",
                "params": {
                    "a": "first int to multiply",
                    "b": "second int to multiply"
                }
            },
            "function2(uint16)": {
                "details": "public function to add 2 to a",
                "params": {
                    "a": "first int to add to"
                }
            }
        },
        "version": 1
    },
    "userdoc": {
        "kind": "user",
        "methods": {},
        "version": 1
    }
}